:100000000C9446000C9465000C9465000C946500FB
:100010000C9465000C9465000C9465000C946500CC
:100020000C9465000C9465000C9465000C946500BC
:100030000C9465000C9465000C9465000C946500AC
:100040000C9465000C9465000C9465000C9465009C
:100050000C9465000C9465000C9465000C9465008C
:100060000C9465000C9465000C9465000C9465007C
:100070000C9465000C9465000C9465000C9465006C
:100080000C9465000C9465000C94650011241FBE4F
:10009000CFEFD0E1DEBFCDBF11E0A0E0B1E0E8EBF3
:1000A000F1E100E00BBF02C007900D92A830B1074C
:1000B000D9F711E0A8E0B1E001C01D92A830B10766
:1000C000E1F70E9467000C94DA080C9400000F938B
:1000D0001F93DF93CF93CDB7DEB7C654D0400FB692
:1000E000F894DEBF0FBECDBF87E390E020EFFC01A8
:1000F000208388E390E020EFFC01208388E390E0F8
:1001000020E6FC01208380E090E0AAEFB3E489833D
:100110009A83AB83BC8369817A818B819C8120E047
:1001200030E04AE755E40E943005DC01CB018D83C5
:100130009E83AF83B88711E06D817E818F81988522
:1001400020E030E040E85FE30E948D0688230CF059
:1001500010E0112329F081E090E09A87898746C05A
:1001600011E06D817E818F81988520E03FEF4FE720
:1001700057E40E942D0618160CF010E0112361F1CF
:1001800069817A818B819C8120E030E040E251E4FA
:100190000E943005DC01CB01BC01CD010E945A0355
:1001A000DC01CB019A87898712C080E991E09C87A6
:1001B0008B878B859C858C01C8010197F1F78C0199
:1001C0001C870B8789859A8501979A8789878985F6
:1001D0009A85009751F717C06D817E818F81988530
:1001E0000E945A03DC01CB019A87898789859A8509
:1001F0009E878D878D859E858C01F8013197F1F75B
:100200008F011E870D8788E390E0FC01108280E05B
:1002100090E0AAEFB3E48F87988BA98BBA8B6F8598
:10022000788989899A8920E030E04AE755E40E947C
:100230003005DC01CB018B8B9C8BAD8BBE8B11E031
:100240006B897C898D899E8920E030E040E85FE3FE
:100250000E948D0688230CF010E0112329F081E024
:1002600090E0988F8F8B46C011E06B897C898D89D7
:100270009E8920E03FEF4FE757E40E942D061816B5
:100280000CF010E0112361F16F85788989899A89D2
:1002900020E030E040E251E40E943005DC01CB0177
:1002A000BC01CD010E945A03DC01CB01988F8F8BDA
:1002B00012C080E991E09A8F898F898D9A8D8C0187
:1002C000C8010197F1F78C011A8F098F8F89988DDA
:1002D0000197988F8F8B8F89988D009751F717C052
:1002E0006B897C898D899E890E945A03DC01CB0130
:1002F000988F8F8B8F89988D9C8F8B8F8B8D9C8DFA
:100300008C01F8013197F1F78F011C8F0B8F88E377
:1003100090E020E2FC01208380E090E0AAE7B4E4D2
:100320008D8F9E8FAF8FB8A36D8D7E8D8F8D98A191
:1003300020E030E04AE755E40E943005DC01CB01C3
:1003400089A39AA3ABA3BCA311E069A17AA18BA155
:100350009CA120E030E040E85FE30E948D06882306
:100360000CF010E0112329F081E090E09EA38DA312
:1003700046C011E069A17AA18BA19CA120E03FEFCA
:100380004FE757E40E942D0618160CF010E01123D9
:1003900061F16D8D7E8D8F8D98A120E030E040E27F
:1003A00051E40E943005DC01CB01BC01CD010E946B
:1003B0005A03DC01CB019EA38DA312C080E991E01A
:1003C00098A78FA38FA198A58C01C8010197F1F779
:1003D0008C0118A70FA38DA19EA101979EA38DA3A9
:1003E0008DA19EA1009751F717C069A17AA18BA199
:1003F0009CA10E945A03DC01CB019EA38DA38DA179
:100400009EA19AA789A789A59AA58C01F801319781
:10041000F1F78F011AA709A788E390E020E4FC0117
:10042000208380E090E0AAEFB4E48BA79CA7ADA75F
:10043000BEA76BA57CA58DA59EA520E030E04AE770
:1004400055E40E943005DC01CB018FA798ABA9AB26
:10045000BAAB11E06FA578A989A99AA920E030E08C
:1004600040E85FE30E948D0688230CF010E0112322
:1004700029F081E090E09CAB8BAB46C011E06FA50A
:1004800078A989A99AA920E03FEF4FE757E40E9495
:100490002D0618160CF010E0112361F16BA57CA558
:1004A0008DA59EA520E030E040E251E40E94300599
:1004B000DC01CB01BC01CD010E945A03DC01CB0160
:1004C0009CAB8BAB12C080E991E09EAB8DAB8DA94C
:1004D0009EA98C01C8010197F1F78C011EAB0DABF1
:1004E0008BA99CA901979CAB8BAB8BA99CA900976E
:1004F00051F717C06FA578A989A99AA90E945A0334
:10050000DC01CB019CAB8BAB8BA99CA998AF8FABCB
:100510008FA998AD8C01F8013197F1F78F0118AFD1
:100520000FAB88E390E020E2FC01208380E090E0C4
:10053000AAE7B4E489AF9AAFABAFBCAF69AD7AAD0F
:100540008BAD9CAD20E030E04AE755E40E943005D9
:10055000DC01CB019E01235C3F4FF9018083918335
:10056000A283B38311E0CE01CD96FC01608171813D
:100570008281938120E030E040E85FE30E948D06B5
:1005800088230CF010E0112349F0CE018F5B9F4FC0
:1005900021E030E0FC01318320836EC011E0CE0108
:1005A000CD96FC01608171818281938120E03FEFD3
:1005B0004FE757E40E942D0618160CF010E01123A7
:1005C00009F449C069AD7AAD8BAD9CAD20E030E057
:1005D00040E251E40E943005DC01CB018E010F5B4B
:1005E0001F4FBC01CD010E945A03DC01CB01F80171
:1005F0009183808327C0CE018D5B9F4F20E931E03E
:10060000FC0131832083CE018D5B9F4FFC018081F3
:1006100091818C01C8010197F1F78C01CE018D5BAE
:100620009F4FFC0111830083CE018F5B9F4F9E0182
:100630002F5B3F4FF9012081318121503040FC0177
:1006400031832083CE018F5B9F4FFC01808191819C
:10065000009789F653CD8E010F5B1F4FCE01CD96CB
:10066000FC0160817181828193810E945A03DC01C7
:10067000CB01F80191838083CE018B5B9F4F9E015C
:100680002F5B3F4FF90120813181FC0131832083B1
:10069000CE018B5B9F4FFC01808191818C01C80151
:1006A0000197F1F78C01CE018B5B9F4FFC01118309
:1006B000008324CDEF92FF920F931F937B018C0157
:1006C00020E030E040E05FE40E945D0687FD11C05D
:1006D000C801B70120E030E040E05FE40E94FF0481
:1006E0000E94BD069B01AC01205030404040504864
:1006F00006C0C801B7010E94BD069B01AC01B9014B
:10070000CA011F910F91FF90EF900895A0E0B0E013
:10071000ECE8F3E00C94A708FC01EA018081823048
:1007200008F43AC1DB019C91923008F432C1843064
:1007300059F4943009F030C1918111968C91119740
:10074000981709F023C128C1943009F422C19230CE
:10075000B1F4823009F020C1CA01AF0128E0DA010A
:100760000D90AD01DC010D92CD012150C1F7DB01EF
:1007700011968C9111979181892389830CC18230C4
:1007800009F407C1C280D380DB0112966D907C9082
:10079000139724813581468157811496ED90FD9001
:1007A0000D911C911797C601861997095C0197FF57
:1007B00004C0AA24BB24A81AB90AB0E2AB16B1043B
:1007C0000CF062C0181619066CF5370148010A2CA6
:1007D00004C096948794779467940A94D2F781E042
:1007E00090E0A0E0B0E00A2C04C0880F991FAA1F77
:1007F000BB1F0A94D2F70197A109B1098E219F214D
:10080000A023B123EE24FF248701E3940097A105E0
:10081000B10519F4EE24FF248701E628F7280829FA
:1008200019293EC00097E1F1CA0CDB1C39014A01CD
:100830000A2C04C096948794779467940A94D2F70C
:1008400081E090E0A0E0B0E00A2C04C0880F991F7E
:10085000AA1FBB1F0A94D2F70197A109B1098223ED
:100860009323A423B52321E030E040E050E000973B
:10087000A105B10521F420E030E040E050E0262958
:100880003729482959290CC06C147D0424F4EE241E
:10089000FF24870105C0630120E030E040E050E024
:1008A0008181FB019181891709F445C0882349F0B2
:1008B000D801C701821B930BA40BB50B9C01AD01A2
:1008C00004C02E193F09400B510B57FD04C019827B
:1008D000DB82CA820BC081E08983DB82CA825095A9
:1008E0004095309521953F4F4F4F5F4F2C833D836F
:1008F0004E835F830DC0880F991FAA1FBB1F8C8377
:100900009D83AE83BF838A819B8101979B838A836A
:100910008C819D81AE81BF819C01AD012150304011
:10092000404050402F3FEFEF3E07EFEF4E07EFE321
:100930005E0708F30BC08983DB82CA822E0D3F1D40
:10094000401F511F2C833D834E835F8383E0888348
:100950002C813D814E815F8157FF1DC0DA01C901A5
:1009600081709070A070B070569547953795279517
:10097000822B932BA42BB52B8C839D83AE83BF83BB
:100980008A819B8101969B838A8305C0E0E0F1E028
:1009900003C0FB0101C0FE01CF01CDB7DEB7EEE021
:1009A0000C94C308A0E2B0E0E8EDF4E00C94AF08CA
:1009B00069837A838B839C832D833E834F835887FF
:1009C00089E0E82EF12CEC0EFD1ECE010196B70158
:1009D0000E94E1078E010F5E1F4FCE010596B80100
:1009E0000E94E107C701B801AE01475E5F4F0E9458
:1009F00086030E941007A096E6E00C94CB08A0E2C4
:100A0000B0E0E5E0F5E00C94AF0869837A838B836E
:100A10009C832D833E834F8358878E01075F1F4F32
:100A2000CE010196B8010E94E10791E1E92EF12C77
:100A3000EC0EFD1ECE010596B7010E94E1078A89E2
:100A400091E089278A8BC801B701AE01475E5F4FED
:100A50000E9486030E941007A096E6E00C94CB0843
:100A6000A0E2B0E0E6E3F5E00C94A30869837A83A2
:100A70008B839C832D833E834F835887CE010196C1
:100A8000BE01675F7F4F0E94E107CE010596BE0160
:100A90006F5E7F4F0E94E1079985923078F08989D7
:100AA0008230C0F0943019F4823041F4CEC08430EA
:100AB00019F4923079F4C9C0923051F481E02A855A
:100AC0009A89291709F480E08A87CE010996BFC068
:100AD000823051F481E02A859A89291709F480E04F
:100AE0008A8BCE014196B3C06D847E848F849888B2
:100AF000ED88FE880F89188DE0E2F0E080E090E05C
:100B0000A0E0B0E0AA24BB24650120E030E040E092
:100B100050E0B3016170707061157105D9F02E0D50
:100B20003F1D401F511F15012601280E391E4A1E68
:100B30005B1E81E090E0A0E0B0E02E153F0540078D
:100B4000510720F080E090E0A0E0B0E0820D931D1E
:100B5000A41DB51DAA0CBB1CCC1CDD1C17FF09C0B5
:100B600061E0262E312C412C512CA228B328C42818
:100B7000D528319749F0EE0CFF1C001F111F9694E9
:100B8000879477946794C5CF6B897C89EB85FC85C6
:100B90006E0F7F1F6E5F7F4F7C8F6B8F61E0EA85EA
:100BA0007A89E71709F460E06A8F6B8D7C8D10C03D
:100BB000FC01E170F070309729F056954795379514
:100BC00027955068B695A795979587956F5F7F4F46
:100BD000B7FDEECF0CC0880F991FAA1FBB1F57FD92
:100BE0008160220F331F441F551F615070408030B9
:100BF000E0E09E07E0E0AE07E0E4BE0760F36B8F45
:100C00007C8F6FE7E62EF12C012D112DE822F922C1
:100C10000A231B2360E4E616F1040105110561F4C3
:100C200087FD0AC0211531054105510529F0805C79
:100C30009F4FAF4FBF4F80788D8F9E8FAF8FB8A3E0
:100C400083E0898FCE01499602C080E091E00E9446
:100C50001007A096E2E10C94BF08A8E1B0E0E3E33E
:100C6000F6E00C94AF0869837A838B839C832D8391
:100C70003E834F8358878E01075F1F4FCE01019639
:100C8000B8010E94E10781E1E82EF12CEC0EFD1E77
:100C9000CE010596B7010E94E1078985823040F0B8
:100CA0008989823028F0C801B7010E944A0801C032
:100CB0008FEF6896E6E00C94CB08A8E1B0E0E3E69D
:100CC000F6E00C94AF0869837A838B839C832D8331
:100CD0003E834F8358878E01075F1F4FCE010196D9
:100CE000B8010E94E10781E1E82EF12CEC0EFD1E17
:100CF000CE010596B7010E94E1078985823040F058
:100D00008989823028F0C801B7010E944A0801C0D1
:100D10008FEF6896E6E00C94CB08A8E1B0E0E3E939
:100D2000F6E00C94AF0869837A838B839C832D83D0
:100D30003E834F8358878E01075F1F4FCE01019678
:100D4000B8010E94E10781E1E82EF12CEC0EFD1EB6
:100D5000CE010596B7010E94E1078985823040F0F7
:100D60008989823028F0C801B7010E944A0801C071
:100D700081E06896E6E00C94CB08ACE0B0E0E3ECF0
:100D8000F6E00C94B30869837A838B839C83CE014D
:100D90000196BE016B5F7F4F0E94E1078D8182301B
:100DA00081F1823070F1843021F48E81882371F1D9
:100DB0000AC02F81388537FD24C06E812F3131055F
:100DC0003CF0662319F120E030E040E050E822C01A
:100DD0008EE190E0821B930B29853A854B855C85DB
:100DE00004C056954795379527958A95D2F766237F
:100DF00089F050954095309521953F4F4F4F5F4F6B
:100E000009C020E030E040E050E004C02FEF3FEFA9
:100E10004FEF5FE7B901CA012C96E2E00C94CF08CE
:100E2000EF92FF920F931F93CF93DF93FC012481E6
:100E300035814681578161818081823020F4406113
:100E4000EFEFF0E0A6C0843009F49DC0823009F4D1
:100E500094C0211531054105510509F491C0028066
:100E6000F381E02D8FEFE238F8070CF05CC0C2E8A8
:100E7000DFEFCE1BDF0BCA31D10574F579018A0192
:100E80000C2E04C016950795F794E7940A94D2F7B0
:100E900081E090E0A0E0B0E00C2E04C0880F991F24
:100EA000AA1FBB1F0A94D2F70197A109B109822397
:100EB0009323A423B52321E030E040E050E00097E5
:100EC000A105B10521F420E030E040E050E02E29FA
:100ED0003F29402B512B04C020E030E040E050E09F
:100EE000DA01C9018F779070A070B07080349105DD
:100EF000A105B10539F427FF09C0205C3F4F4F4FD2
:100F00005F4F04C0215C3F4F4F4F5F4FE1E0F0E087
:100F1000203080E0380780E0480780E4580728F553
:100F2000E0E0F0E022C0E038F1056CF5E158FF4F59
:100F3000DA01C9018F779070A070B070803491058C
:100F4000A105B10539F427FF09C0205C3F4F4F4F81
:100F50005F4F04C0215C3F4F4F4F5F4F57FF05C0AD
:100F60005695479537952795319687E0569547953D
:100F7000379527958A95D1F70CC0E0E0F0E005C0E1
:100F8000E0E0F0E006C0EFEFF0E020E030E040E02D
:100F900050E08E2F879588278795942F9F776795A8
:100FA00066276795E695E22EA92FA82BFE2FF62B34
:100FB000622F732F8A2F9F2FCDB7DEB7E6E00C94F8
:100FC000CB08DC01FB012C9111963C9111971296F4
:100FD0008C911297482F4F7750E0982F991F99279F
:100FE000991F13966C911397862F880F892B90E089
:100FF000661F6627661F6183009739F52115310545
:101000004105510511F482E029C082E89FEF9383E6
:10101000828367E0220F331F441F551F6A95D1F763
:1010200083E0808309C0220F331F441F551F828134
:101030009381019793838283203080E0380780E09A
:10104000480780E4580778F320C08F3F910579F472
:10105000211531054105510519F484E08083089577
:1010600044FF03C081E0808310C010820EC08F5700
:1010700090409383828383E0808387E0220F331F35
:10108000441F551F8A95D1F75064248335834683C6
:1010900057830895FC01DB019081923008F449C028
:1010A0008C91823008F445C0943051F461818430D1
:1010B000B1F511962C91119730E0261B310941C0F2
:1010C000843021F0923041F48230B1F111968C914C
:1010D00011978823A1F12DC06181823001F1119611
:1010E0008C9111976817D9F42281338112968D91D2
:1010F0009C9113978217930794F028173907BCF037
:10110000248135814681578114968D919D910D9052
:10111000BC91A02D82179307A407B50718F4662386
:1011200041F00DC0281739074A075B0728F46623EA
:1011300031F021E030E005C020E030E002C02FEFC8
:101140003FEFC90108952F923F924F925F926F92A5
:101150007F928F929F92AF92BF92CF92DF92EF9247
:10116000FF920F931F93CF93DF93CDB7DEB7CA1BC8
:10117000DB0B0FB6F894DEBF0FBECDBF09942A88F3
:10118000398848885F846E847D848C849B84AA849B
:10119000B984C884DF80EE80FD800C811B81AA8128
:1011A000B981CE0FD11D0FB6F894DEBF0FBECDBFF3
:0811B000ED010895F894FFCF52
:00000001FF
