:020000020000FC
:020000003DC001
:1000780023D018950FEF0DBF00E10EBF00E008BBBD
:100088000FEF07BB0FEF02BB00E001BB02E00093DC
:100098009B0003E00093980000E4009399000EE0B1
:1000A80000939D0008E900939A0078940AE00ABF3B
:1000B80001E070E088BBFECF60919B0067FFFCCF3A
:1000C80060919C00703019F0713031F00895613101
:1000D80009F0089571E00895862F70E008957091F1
:1000E8009B0075FFFCCF00939C0008955F932F93AE
:1000F8003F9330EE2DEE2A95F1F73A95D9F75A95B8
:0A010800C1F73F912F915F91089518
:00000001FF
