:020000020000FC
:0200000045C0F9
:04000800A4D01895D3
:04000400B9D01895C2
:0400780038D01895CF
:10008C000FEF0DBF00E10EBF00E008BB0FEF07BB89
:10009C000FEF02BB00E001BB02E000939B0003E00A
:1000AC000093980000E4009399000EE000939D00EB
:1000BC0008E900939A00789400E000936A0007E046
:1000CC0009BF0AE00ABF01E070E0112788278827E2
:1000DC0088BB5AE00E94CE00882788BBF8CF60917D
:1000EC009B0067FFFCCF60919C00653529F0703058
:1000FC00A9F07130C1F0089568BB05E508BB54EF59
:10010C000E94CE00002708BB1395153009F0089506
:10011C00039508BB54E10E94CE00FACF6F3709F06B
:10012C00089571E0089570E0683F11F068BB089580
:10013C0005E50E94A200089540919B0045FFFCCF6D
:10014C0000939C0008950F935F930FB70F9300E0FB
:10015C0008BB54E61DD000E208BB54E619D000E6FB
:10016C0008BB0F910FBF5F910F9108950F935F9391
:10017C000FB70F9300E008BB54E60AD000E408BBAD
:10018C0054E606D000E608BB0F915F910F910895DD
:10019C005F932F933F9330EE2DEE2A95F1F73A951E
:0E01AC00D9F75A95C1F73F912F915F910895B1
:00000001FF
