:020000020000FC
:0200000045C0F9
:0800080059D018956AD0189533
:10008C000FEF0DBF00E10EBF00E008BB0FEF07BB89
:10009C000FEF02BB00E001BB08E200936A0000E036
:1000AC000ABF06E009BF789400E608BBFDCF0895AF
:1000BC000F931F930FB70F9300E008BB14E61ED0ED
:1000CC0000E208BB18EC1AD000E608BB0F910FBF7A
:1000DC001F910F9108950F931F930FB70F9300E08B
:1000EC0008BB18EC0BD000E408BB14E607D000E604
:1000FC0008BB0F910FBF1F910F9108951F932F9362
:10010C003F9330EE2DEE2A95F1F73A95D9F71A95E3
:0A011C00C1F73F912F911F91089544
:00000001FF
